:020000040800F2
:10000000005000202D4600087D4600087D4600086F
:100010007D4600087D4600087D460008000000007F
:100020000000000000000000000000007D46000805
:100030007D460008000000007D460008F51300081A
:100040007D4600087D4600087D4600087D46000884
:100050007D4600087D460008311400085D14000844
:1000600089140008B5140008E11400087D46000852
:100070007D4600087D4600087D4600087D46000854
:100080007D4600087D4600087D4600087D46000844
:100090007D4600087D4600087D4600087D46000834
:1000A0007D4600087D4600087D4600087D46000824
:1000B000551600088D160008C51600087D46000874
:1000C0007D4600087D4600087D4600087D46000804
:1000D0007D4600087D4600087D4600087D460008F4
:1000E0007D4600087D460008000000007D460008AF
:1000F0007D4600087D4600087D4600087D460008D4
:100100007D4600087D4600087D4600087D460008C3
:100110007D4600087D4600087D4600087D460008B3
:100120007D4600087D4600087D4600087D460008A3
:1001300010B5054C237833B9044B13B10448AFF321
:1001400000800123237010BDF40100200000000096
:100150001C81000808B5034B1BB103490348AFF3EA
:10016000008008BD00000000F80100201C8100088C
:1001700010F8012B11F8013B012A28BF9A42F7D051
:10018000D01A7047034613F8012B002AFBD1181A26
:100190000138704781F0004102E000BF83F0004366
:1001A00030B54FEA41044FEA430594EA050F08BF12
:1001B00090EA020F1FBF54EA000C55EA020C7FEAD6
:1001C000645C7FEA655C00F0E2804FEA5454D4EB53
:1001D0005555B8BF6D420CDD2C4480EA020281EA1D
:1001E000030382EA000083EA010180EA020281EA55
:1001F0000303362D88BF30BD11F0004F4FEA0131A7
:100200004FF4801C4CEA113102D0404261EB4101B5
:1002100013F0004F4FEA03334CEA133302D052423B
:1002200063EB430394EA050F00F0A780A4F10104F7
:10023000D5F1200E0DDB02FA0EFC22FA05F2801831
:1002400041F1000103FA0EF2801843FA05F3594117
:100250000EE0A5F120050EF1200E012A03FA0EFC96
:1002600028BF4CF0020C43FA05F3C01851EBE371C0
:1002700001F0004507D54FF0000EDCF1000C7EEBDD
:1002800000006EEB0101B1F5801F1BD3B1F5001F1B
:100290000CD349085FEA30004FEA3C0C04F101043A
:1002A0004FEA445212F5800F80F09A80BCF1004F63
:1002B00008BF5FEA500C50F1000041EB045141EAE5
:1002C000050130BD5FEA4C0C404141EB0101013CAE
:1002D00028BFB1F5801FE9D291F0000F04BF01469D
:1002E0000020B1FA81F308BF2033A3F10B03B3F16F
:1002F00020020CDA0C3208DD02F1140CC2F10C02FF
:1003000001FA0CF021FA02F10CE002F11402D8BF5C
:10031000C2F1200C01FA02F120FA0CFCDCBF41EA28
:100320000C019040E41AA2BF01EB0451294330BDF7
:100330006FEA04041F3C1CDA0C340EDC04F11404D4
:10034000C4F1200220FA04F001FA02F340EA0300AB
:1003500021FA04F345EA030130BDC4F10C04C4F1F1
:10036000200220FA02F001FA04F340EA03002946D1
:1003700030BD21FA04F0294630BD94F0000F83F41B
:10038000801306BF81F480110134013D4EE77FEAFE
:10039000645C18BF7FEA655C29D094EA050F08BF4A
:1003A00090EA020F05D054EA000C04BF194610462B
:1003B00030BD91EA030F1EBF0021002030BD5FEA6F
:1003C000545C05D14000494128BF41F0004130BD97
:1003D00014F580043CBF01F5801130BD01F00045EB
:1003E00045F0FE4141F470014FF0000030BD7FEA5E
:1003F000645C1ABF194610467FEA655C1CBF0B4659
:10040000024650EA013406BF52EA033591EA030F6F
:1004100041F4002130BD00BF90F0000F04BF002167
:10042000704730B54FF4806404F132044FF000059A
:100430004FF0000150E700BF90F0000F04BF002113
:10044000704730B54FF4806404F1320410F0004579
:1004500048BF40424FF000013EE700BF42004FEA74
:10046000E2014FEA31014FEA02701FBF12F07F43F1
:1004700093F07F4F81F06051704732F07F4208BFA8
:10048000704793F07F4F04BF41F40021704730B5AF
:100490004FF4607401F0004521F000411CE700BFFB
:1004A00050EA010208BF704730B54FF000050AE07E
:1004B00050EA010208BF704730B511F0004502D57F
:1004C000404261EB41014FF4806404F132045FEA81
:1004D000915C3FF4D8AE4FF003025FEADC0C18BF2A
:1004E00003325FEADC0C18BF033202EBDC02C2F11C
:1004F000200300FA03FC20FA02F001FA03FE40EAAE
:100500000E0021FA02F11444BDE600BF70B54FF0B1
:10051000FF0C4CF4E06C1CEA11541DBF1CEA13558F
:1005200094EA0C0F95EA0C0F00F0DEF82C4481EAF7
:10053000030621EA4C5123EA4C5350EA013518BF17
:1005400052EA033541F4801143F4801338D0A0FB04
:1005500002CE4FF00005E1FB02E506F00042E0FBB1
:1005600003E54FF00006E1FB03569CF0000F18BFB7
:100570004EF0010EA4F1FF04B6F5007F64F540745F
:1005800004D25FEA4E0E6D4146EB060642EAC621F2
:1005900041EA55514FEAC52040EA5E504FEACE2E5F
:1005A000B4F1FD0C88BFBCF5E06F1ED8BEF1004F62
:1005B00008BF5FEA500E50F1000041EB045170BDDE
:1005C00006F0004646EA010140EA020081EA030122
:1005D000B4EB5C04C2BFD4EB0C0541EA045170BD1E
:1005E00041F480114FF0000E013C00F3AB8014F198
:1005F000360FDEBF002001F0004170BDC4F10004E1
:10060000203C35DA0C341BDC04F11404C4F1200561
:1006100000FA05F320FA04F001FA05F240EA0200BC
:1006200001F0004221F0004110EBD37021FA04F6F2
:1006300042EB06015EEA430E08BF20EAD37070BDAC
:10064000C4F10C04C4F1200500FA04F320FA05F00B
:1006500001FA04F240EA020001F0004110EBD3700D
:1006600041F100015EEA430E08BF20EAD37070BD7D
:10067000C4F1200500FA05F24EEA020E20FA04F356
:1006800001FA05F243EA020321FA04F001F0004105
:1006900021FA04F220EA020000EBD3705EEA430E76
:1006A00008BF20EAD37070BD94F0000F0FD101F0A5
:1006B0000046400041EB010111F4801F08BF013CDE
:1006C000F7D041EA060195F0000F18BF704703F01C
:1006D0000046520043EB030313F4801F08BF013DA3
:1006E000F7D043EA0603704794EA0C0F0CEA13555F
:1006F00018BF95EA0C0F0CD050EA410618BF52EA19
:100700004306D1D181EA030101F000414FF000001E
:1007100070BD50EA410606BF1046194652EA43062C
:1007200019D094EA0C0F02D150EA013613D195EAA0
:100730000C0F05D152EA03361CBF104619460AD1E8
:1007400081EA030101F0004141F0FE4141F47001F2
:100750004FF0000070BD41F0FE4141F4780170BDE2
:1007600070B54FF0FF0C4CF4E06C1CEA11541DBF47
:100770001CEA135594EA0C0F95EA0C0F00F0A7F849
:10078000A4EB050481EA030E52EA03354FEA013176
:1007900000F088804FEA03334FF0805545EA131389
:1007A00043EA12634FEA022245EA111545EA106551
:1007B0004FEA00260EF000419D4208BF964244F1E8
:1007C000FD0404F5407402D25B084FEA3202B61A07
:1007D00065EB03055B084FEA32024FF480104FF4DB
:1007E000002CB6EB020E75EB030E22BFB61A75464F
:1007F00040EA0C005B084FEA3202B6EB020E75EBE2
:10080000030E22BFB61A754640EA5C005B084FEA49
:100810003202B6EB020E75EB030E22BFB61A754616
:1008200040EA9C005B084FEA3202B6EB020E75EB21
:10083000030E22BFB61A754640EADC0055EA060EE2
:1008400018D04FEA051545EA16754FEA06164FEA25
:10085000C30343EA52734FEAC2025FEA1C1CC0D1D1
:1008600011F4801F0BD141EA00014FF000004FF05E
:10087000004CB6E711F4801F04BF01430020B4F11F
:10088000FD0C88BFBCF5E06F3FF6AFAEB5EB030CD7
:1008900004BFB6EB020C5FEA500C50F1000041EBD4
:1008A000045170BD0EF0004E4EEA113114EB5C04A1
:1008B000C2BFD4EB0C0541EA045170BD41F4801174
:1008C0004FF0000E013C90E645EA060E8DE60CEA7C
:1008D000135594EA0C0F08BF95EA0C0F3FF43BAF99
:1008E00094EA0C0F0AD150EA01347FF434AF95EA50
:1008F0000C0F7FF425AF104619462CE795EA0C0F34
:1009000006D152EA03353FF4FDAE1046194622E700
:1009100050EA410618BF52EA43067FF4C5AE50EADA
:1009200041047FF40DAF52EA43057FF4EBAE12E7CA
:100930004FF0FF3C06E000BF4FF0010C02E000BFAB
:100940004FF0010C4DF804CD4FEA410C7FEA6C5C8E
:100950004FEA430C18BF7FEA6C5C1BD001B050EA31
:10096000410C0CBF52EA430C91EA030F02BF90EA1C
:10097000020F0020704710F1000F91EA030F58BFDB
:10098000994208BF90422CBFD8176FEAE37040F03D
:10099000010070474FEA410C7FEA6C5C02D150EADB
:1009A000013C07D14FEA430C7FEA6C5CD6D152EA96
:1009B000033CD3D05DF8040B704700BF844610465B
:1009C00062468C461946634600E000BF01B5FFF75A
:1009D000B7FF002848BF10F1000F01BD4DF808ED2A
:1009E000FFF7F4FF0CBF012000205DF808FB00BFFB
:1009F0004DF808EDFFF7EAFF34BF012000205DF855
:100A000008FB00BF4DF808EDFFF7E0FF94BF0120A1
:100A100000205DF808FB00BF4DF808EDFFF7CEFFA2
:100A200094BF012000205DF808FB00BF4DF808EDE1
:100A3000FFF7C4FF34BF012000205DF808FB00BFB2
:100A40004FEA410C7FEA6C5C02D150EA013C0AD1CA
:100A50004FEA430C7FEA6C5C02D152EA033C02D1BC
:100A60004FF0000070474FF0010070474FEA41021D
:100A700012F5001215D211D56FF47873B3EB6252F0
:100A800012D94FEAC12343F0004343EA505311F017
:100A9000004F23FA02F018BF404270474FF00000A9
:100AA000704750EA013005D111F0004008BF6FF0E7
:100AB000004070474FF00000704700BF4A0011D25D
:100AC00012F5001211D20DD56FF47873B3EB6252A8
:100AD0000ED44FEAC12343F0004343EA505323FAB4
:100AE00002F070474FF00000704750EA013002D129
:100AF0004FF0FF3070474FF00000704780F000402B
:100B000002E000BF81F0004142001FBF5FEA4103E5
:100B100092EA030F7FEA226C7FEA236C6AD04FEAE5
:100B20001262D2EB1363C1BFD2184140484041402A
:100B3000B8BF5B42192B88BF704710F0004F40F4DC
:100B4000000020F07F4018BF404211F0004F41F4F8
:100B5000000121F07F4118BF494292EA030F3FD0C4
:100B6000A2F1010241FA03FC10EB0C00C3F12003D7
:100B700001FA03F100F0004302D5494260EB400066
:100B8000B0F5000F13D3B0F1807F06D340084FEAD1
:100B9000310102F10102FE2A51D2B1F1004F40EBC6
:100BA000C25008BF20F0010040EA0300704749002E
:100BB00040EB0000013A28BFB0F5000FEDD2B0FACB
:100BC00080FCACF1080CB2EB0C0200FA0CF0AABFEE
:100BD00000EBC25052421843BCBFD040184370478C
:100BE00092F0000F81F4000106BF80F40000013292
:100BF000013BB5E74FEA41037FEA226C18BF7FEA69
:100C0000236C21D092EA030F04D092F0000F08BFAA
:100C10000846704790EA010F1CBF0020704712F091
:100C20007F4F04D1400028BF40F00040704712F1D0
:100C300000723CBF00F50000704700F0004343F035
:100C4000FE4040F4000070477FEA226216BF08466B
:100C50007FEA23630146420206BF5FEA412390EA2E
:100C6000010F40F4800070474FF0000304E000BF24
:100C700010F0004348BF40425FEA000C08BF7047D5
:100C800043F0964301464FF000001CE050EA010299
:100C900008BF70474FF000030AE000BF50EA0102AE
:100CA00008BF704711F0004302D5404261EB41019B
:100CB0005FEA010C02BF84460146002043F0B643C0
:100CC00008BFA3F18053A3F50003BCFA8CF2083AE5
:100CD000A3EBC25310DB01FA02FC634400FA02FCEE
:100CE000C2F12002BCF1004F20FA02F243EB0200F5
:100CF00008BF20F00100704702F1200201FA02FC57
:100D0000C2F1200250EA4C0021FA02F243EB020049
:100D100008BF20EADC7070474FF0FF0C1CEAD0528D
:100D20001EBF1CEAD15392EA0C0F93EA0C0F6FD04E
:100D30001A4480EA010C400218BF5FEA41211ED02C
:100D40004FF0006343EA501043EA5111A0FB013118
:100D50000CF00040B1F5000F3EBF490041EAD371ED
:100D60005B0040EA010062F17F02FD2A1DD8B3F169
:100D7000004F40EBC25008BF20F00100704790F0D8
:100D8000000F0CF0004C08BF49024CEA502040EA2A
:100D900051207F3AC2BFD2F1FF0340EAC2507047F0
:100DA00040F400004FF00003013A5DDC12F1190F2E
:100DB000DCBF00F000407047C2F10002410021FAA0
:100DC00002F1C2F1200200FA02FC5FEA310040F1B8
:100DD000000053EA4C0308BF20EADC70704792F031
:100DE000000F00F0004C02BF400010F4000F013A69
:100DF000F9D040EA0C0093F0000F01F0004C02BF64
:100E0000490011F4000F013BF9D041EA0C018FE7D2
:100E10000CEAD15392EA0C0F18BF93EA0C0F0AD0D8
:100E200030F0004C18BF31F0004CD8D180EA0100FE
:100E300000F00040704790F0000F17BF90F0004F97
:100E4000084691F0000F91F0004F14D092EA0C0F79
:100E500001D142020FD193EA0C0F03D14B0218BF0C
:100E6000084608D180EA010000F0004040F0FE4052
:100E700040F40000704740F0FE4040F440007047EE
:100E80004FF0FF0C1CEAD0521EBF1CEAD15392EA6D
:100E90000C0F93EA0C0F69D0A2EB030280EA010C5D
:100EA00049024FEA402037D04FF0805343EA1111F6
:100EB00043EA10130CF000408B4238BF5B0042F154
:100EC0007D024FF4000C8B4224BF5B1A40EA0C00F9
:100ED000B3EB510F24BFA3EB510340EA5C00B3EB2B
:100EE000910F24BFA3EB910340EA9C00B3EBD10F19
:100EF00024BFA3EBD10340EADC001B0118BF5FEA6B
:100F00001C1CE0D1FD2A3FF650AF8B4240EBC25093
:100F100008BF20F0010070470CF0004C4CEA502054
:100F20007F32C2BFD2F1FF0340EAC250704740F4A3
:100F300000004FF00003013A37E792F0000F00F095
:100F4000004C02BF400010F4000F013AF9D040EA13
:100F50000C0093F0000F01F0004C02BF490011F4A7
:100F6000000F013BF9D041EA0C0195E70CEAD1539F
:100F700092EA0C0F08D142027FF47DAF93EA0C0F86
:100F80007FF470AF084676E793EA0C0F04D14B026A
:100F90003FF44CAF08466EE730F0004C18BF31F01C
:100FA000004CCAD130F000427FF45CAF31F0004316
:100FB0007FF43CAF5FE700BF42000ED2B2F1FE4FBC
:100FC0000BD34FF09E03B3EB126209D44FEA002318
:100FD00043F0004323FA02F070474FF000007047DF
:100FE00012F1610F01D1420202D14FF0FF30704780
:100FF0004FF00000704700BF38B505460C46002290
:10100000002328462146FFF7F3FC28B9284621464D
:10101000BDE8384000F00AB8284604F1004100F06D
:1010200005F8404261EB410138BD00BFD0B5002258
:101030000B4B06460F46FFF769FAFFF73FFD0446E4
:10104000FFF7EAF90022074BFFF760FA02460B466A
:1010500030463946FFF7A2F8FFF730FD2146D0BDF4
:101060000000F03D0000F04180B400AF074B0122CA
:101070005A60064B064A1A60044B1B68034A23F465
:101080000023136000BFBD4680BC704700100240C3
:101090008000010080B485B000AF03460A46FB71B2
:1010A0001346BB710123FB73FB791F2B2AD8BB7935
:1010B000022B1AD0022B22DC002B02D0012B0AD0EB
:1010C0001DE0144B5A69FB79012101FA03F3114920
:1010D00013434B6118E00F4BDA69FB79012101FAE8
:1010E00003F30C491343CB610EE00A4B9A69FB7979
:1010F000012101FA03F3074913438B6104E0022342
:10110000FB7301E00223FB73FB7B18461437BD46DB
:1011100080BC70470010024080B400AF0E4B0F4AF5
:101120001A600D4B0E4A5A600E4B0F4A1A600D4B57
:101130000E4A5A600E4B0F4A5A60074B0022DA6083
:10114000084B0022DA600A4B4FF40052DA6000BF0D
:10115000BD4680BC704700BF0008014000B0B484A9
:10116000B3343383000C0140338388344348BBB429
:10117000001001404444344480B485B000AF0346BD
:10118000FB710B46BB7113467B710123FB73BB796B
:101190000F2B02D90223FB7346E0FB79032B2AD0E5
:1011A000032B3ADC012B02D0022B12D035E07B79E5
:1011B000012B05D1BB7901229A401E4B1A612EE00A
:1011C0007B79002B2BD1BB7901229A40194B5A61B4
:1011D00025E07B79012B05D1BB7901229A40164B82
:1011E0001A611EE07B79002B1BD1BB7901229A404A
:1011F000114B5A6115E07B79012B05D1BB79012296
:101200009A400E4B1A610EE07B79002B0BD1BB7913
:1012100001229A40094B5A6105E000BF04E000BF7B
:1012200002E000BF00E000BFFB7B18461437BD465C
:1012300080BC704700080140000C014000100140D4
:1012400080B485B000AF03463A60FB710B46BB71BA
:101250000123FB73BB790F2B02D90223FB7330E010
:10126000FB79032B1ED0032B28DC012B02D0022B91
:101270000CD023E0164B9A68BB7922FA03F3DBB259
:1012800003F00103DAB23B681A701AE0114B9A6856
:10129000BB7922FA03F3DBB203F00103DAB23B6855
:1012A0001A700EE00C4B9A68BB7922FA03F3DBB29A
:1012B00003F00103DAB23B681A7002E00223FB7309
:1012C00000BFFB7B18461437BD4680BC704700BF8B
:1012D00000080140000C01400010014080B400AF44
:1012E000044B1B68034A23F00403136000BFBD4690
:1012F00080BC704710E000E080B483B000AF064BC4
:101300001B681B0CDBB203F00103FB71FB79184671
:101310000C37BD4680BC704710E000E080B582B05D
:1013200000AF78600B4B00229A600A4A7B685360DA
:10133000084B1B68074A43F00103136000BFFFF727
:10134000DBFF0346002BFAD000BF00BF0837BD46C5
:1013500080BD00BF10E000E080B483B000AF7860D3
:101360000C4B00229A600B4A7B685360094B1B6848
:10137000084A43F002031360064B1B68054A43F01A
:1013800001031360044B02221A7000BF0C37BD46E4
:1013900080BC704710E000E01402002080B400AF71
:1013A000074B1B68064A23F001031360044B00221D
:1013B0005A60034B00229A6000BFBD4680BC704754
:1013C00010E000E080B485B000AF78600123FB73CB
:1013D0007B68002B02D10323FB7302E0044A7B6885
:1013E0001360FB7B18461437BD4680BC704700BFB6
:1013F0001002002080B500AF0A4B1B68002B0ED0F6
:10140000094B1B78012B07D1FFF7C8FF074B1B685F
:10141000064A23F002031360024B1B68984700BF83
:1014200080BD00BF100200201402002010E000E088
:1014300080B500AF074B1B68002B08D0054B1B681D
:101440009847054B5B69044A43F00103536100BFB1
:1014500080BD00BF180200200004014080B500AF2D
:10146000074B5B68002B08D0054B5B689847054B22
:101470005B69044A43F00203536100BF80BD00BFB3
:10148000180200200004014080B500AF074B9B68A4
:10149000002B08D0054B9B689847054B5B69044AB5
:1014A00043F00403536100BF80BD00BF1802002059
:1014B0000004014080B500AF074BDB68002B08D06B
:1014C000054BDB689847054B5B69044A43F008030A
:1014D000536100BF80BD00BF18020020000401401E
:1014E00080B500AF074B1B69002B08D0054B1B696B
:1014F0009847054B5B69044A43F01003536100BFF2
:1015000080BD00BF180200200004014080B400AF7D
:101510004FF080431B684FF0804223F004031360B8
:101520004FF080431B684FF0804223F0200313608C
:101530004FF080431B684FF0804223F0400313605C
:101540004FF080431B684FF0804223F0100313607C
:101550004FF080431B684FF0804223F080031360FC
:101560004FF08043DB684FF0804223F00203D360EA
:101570004FF0804340F21F329A6200BFBD4680BCEC
:101580007047000080B400AF154B1B68144A23F06D
:1015900004031360124B1B68114A23F020031360ED
:1015A0000F4B1B680E4A23F0400313600C4B1B6863
:1015B0000B4A23F010031360094B1B68084A23F001
:1015C00080031360064BDB68054A23F00203D360F7
:1015D000034B40F21F329A6200BFBD4680BC704789
:1015E0000004004080B584B000AF0346FB800123B7
:1015F000FB734FF08042FB88D36200F017F800E0E5
:1016000000BF4FF080431B6903F00103002BF7D0AC
:101610004FF080431B694FF0804223F001031361B8
:10162000FB7B18461037BD4680BD000080B400AF7C
:10163000074B00221A704FF080431B684FF0804226
:1016400043F00103136000BFBD4680BC704700BF7C
:101650006402002080B500AF0A4B1B68002B0ED03F
:10166000094B1B78012B02D1064B1B6898474FF0A2
:1016700080431B694FF0804223F00103136100BFD8
:1016800080BD00BF580200206402002080B500AF7A
:10169000094B1B68002B0CD0084B1B78012B02D187
:1016A000054B1B689847064B1B69054A23F001034D
:1016B000136100BF80BD00BF5C02002065020020F6
:1016C0000004004080B500AF094B1B68002B0CD014
:1016D000084B1B78012B02D1054B1B689847064B22
:1016E0001B69054A23F00103136100BF80BD00BFE1
:1016F00060020020660200200008004080B487B02D
:1017000000AF78607B681B78FB737B685B681B01AC
:10171000954AB2FBF3F37B617B685B681B01934ADC
:10172000B2FBF3F2924BA3FB02135B09642101FBB2
:1017300003F3D31A1B013B613B6940F2DC52934235
:1017400004D97B6901337B6100233B617B6919010B
:101750003B69874AA2FB03235A09FB7B854850F863
:1017600023300A439A60FB7B824A52F82330DA68BE
:10177000FB7B804951F8233042F00802DA60FB7BA2
:101780007C4A52F82330DA68FB7B7A4951F82330DF
:1017900042F00402DA607B68DB7A002B0CD1FB7B21
:1017A000744A52F82330DA68FB7B724951F82330CF
:1017B00042F48062DA600BE0FB7B6E4A52F8233021
:1017C000DA68FB7B6B4951F8233022F48062DA60DF
:1017D0007B685B7A002B0CD1FB7B664A52F8233086
:1017E000DA68FB7B634951F8233022F40072DA6037
:1017F0000FE07B685B7A012B0BD1FB7B5D4A52F8D3
:101800002330DA68FB7B5B4951F8233042F40072E5
:10181000DA607B681B7A002B0CD1FB7B554A52F8AF
:101820002330DA68FB7B534951F8233022F480528D
:10183000DA600FE07B681B7A012B0BD1FB7B4D4AF2
:1018400052F82330DA68FB7B4A4951F8233042F4DE
:101850008052DA607B689B7A012B18D1FB7B454A6A
:1018600052F823301A69FB7B424951F8233022F4A5
:1018700000521A61FB7B3F4A52F823301A69FB7B06
:101880003C4951F8233022F480521A6155E07B68BC
:101890009B7A022B18D1FB7B364A52F823301A6907
:1018A000FB7B344951F8233042F400521A61FB7B30
:1018B000304A52F823301A69FB7B2E4951F8233005
:1018C00022F480521A6138E07B689B7A002B18D191
:1018D000FB7B284A52F823301A69FB7B254951F8D3
:1018E000233022F400521A61FB7B224A52F8233043
:1018F0001A69FB7B1F4951F8233042F480521A6168
:101900001BE07B689B7A032B17D1FB7B194A52F8AB
:1019100023301A69FB7B174951F8233042F40052F7
:101920001A61FB7B134A52F823301A69FB7B114979
:1019300051F8233042F480521A61FB7B0D4A52F871
:101940002330DA68FB7B0B4951F8233042F4005214
:10195000DA60FB7B074A52F8233000221A6000BF8E
:101960001C37BD4680BC704700127A000008AF2FBC
:101970001F85EB51A082000880B483B000AF0346FE
:101980000A46FB711346BB71BB79104A52F82330EB
:10199000FA795A6000BFBB790C4A52F823301B68B1
:1019A0009B0903F00103002BF5D0BB79074A52F8DD
:1019B00023301A68BB79054951F8233022F04002E0
:1019C0001A6000BF0C37BD4680BC7047A08200087B
:1019D00080B485B000AF0346FB7100BFFB79104AAD
:1019E00052F823301B685B0903F00103002BF5D08C
:1019F000FB790B4A52F823305B68FB73FB79084A8A
:101A000052F823301A68FB79054951F8233022F047
:101A100020021A60FB7B18461437BD4680BC704715
:101A2000A082000880B582B000AF78600B46FB70E2
:101A30000BE07B685A1C7A601B78FA7811461846CE
:101A4000FFF79AFF0A20FFF7CDFD7B681B78002B7C
:101A5000EFD100BF00BF0837BD4680BD80B582B062
:101A600000AF0346FB71284B5B68274A43F40043F1
:101A70005360254B9B69244A43F400739361224BC6
:101A80009B69214A43F004039361204B1B681F4A62
:101A900023F00F0313601E4B00229A601C4AFB794F
:101AA00053631B4B1969FA7913465B0013440722F1
:101AB00002FA03F3164A0B431361154B9B68144A51
:101AC00043F0010393606420FFF728FC104B9B68F0
:101AD0000F4A43F00803936000BF0D4B9B6803F06F
:101AE0000803002BF9D10A4B9B68094A43F0010314
:101AF0009360074B9B68064A43F00203936000BF64
:101B00000837BD4680BD00BF0010024000080140FC
:101B10000024014080B483B000AF0023FB71074B69
:101B20001B6803F00203002B01D00123FB71FB793A
:101B300018460C37BD4680BC704700BF00240140EA
:101B400080B485B000AF78600023FB811C4B1B681C
:101B500003F01003002B09D0194BDB6C9BB2BB8147
:101B6000174B1B68164A23F01003136000BF144B79
:101B70001B6803F00203002BF9D0114B1B6803F024
:101B80001003002B05D00E4B1B680D4A23F01003E9
:101B900013600B4BDB6CFB81FB894FF47A7202FB09
:101BA00003F3084A82FB03121A44D212DB17D31A3A
:101BB0009AB27B681A8000BF1437BD4680BC70475C
:101BC000002401408100088080B485B000AFBA6075
:101BD0001A460346FB730B46BB811346FB80FA7B18
:101BE000104913465B0013449B000B44BA891A80CA
:101BF000FA7B0C4913465B0013449B000B440433EF
:101C0000BA681A60FA7B074913465B0013449B00CD
:101C10000B440833FA881A8000BF1437BD4680BCD5
:101C2000704700BF6802002080B500AFFFF756FB89
:101C30000448FFF7C7FB4FF47A70FFF78DFB00BF36
:101C400080BD00BF791C000880B483B000AF03469C
:101C50000A46FB711346BB80FA79064913465B00BE
:101C600013449B000B44BA881A8000BF0C37BD4652
:101C700080BC70476802002080B582B000AF2E4B58
:101C80001B889BB201339AB22B4B1A800023FB7145
:101C90004AE0FA79294913465B0013449B000B4440
:101CA00008331B88002B14D0FA79244913465B00B3
:101CB00013449B000B4408331B88013B98B21F4917
:101CC00013465B0013449B000B44083302461A8002
:101CD00027E0194B1B889AB2F97918480B465B002C
:101CE0000B449B0003441B88B2FBF3F101FB03F39D
:101CF000D31A9BB2002B14D1FA79104913465B001A
:101D000013449B000B4404331B68002B09D0FA7961
:101D10000A4913465B0013449B000B4404331B68C1
:101D20009847FB790133FB71FB79022BB1D900BFD6
:101D300000BF0837BD4680BD8C020020680200202D
:101D400080B582B000AF4FF000037B60FFF7E2FE8A
:101D50000346002B1AD01048FFF7F2FE0E4B1B88EB
:101D60001846FEF785FF03460C491846FEF7D4FFD8
:101D700003460B491846FFF783F8034609491846FE
:101D8000FEF7CAFF03467B607B6800E0064B1846FF
:101D90000837BD4680BD00BF8E0200200000A04075
:101DA00000F07F450000C842000080BF80B582B0CF
:101DB00000AF4FF000037B60FFF7ACFE0346002B43
:101DC0001AD01048FFF7BCFE0E4B1B881846FEF7D2
:101DD0004FFF03460C491846FEF79EFF03460B498A
:101DE0001846FFF74DF8034609491846FEF794FFD9
:101DF00003467B607B6800E0064B18460837BD460B
:101E000080BD00BF900200203333534000F07F4577
:101E10000000C842000080BF80B500AF012202214F
:101E20000220FFF7A9F900BF80BD80B500AF0022F6
:101E300002210220FFF7A0F900BF80BD80B582B06B
:101E400000AF0023FB71FB1D1A4602210220FFF7A1
:101E5000F7F9FB79012B01D8FB7900E00023184644
:101E60000837BD4680BD000080B400AF044B1A683F
:101E7000034B5B6813441846BD4680BC704700BFE7
:101E80009402002080B485B000AF786039607B6830
:101E9000002B02D03B68002B01D1012356E07A6869
:101EA0003B689A420DD1002350E07B681B78002BE1
:101EB00001D100234AE07B6801337B603B6801333A
:101EC0003B607B681B78FB73FB7B0133224A134426
:101ED0001B7803F00303012B03D1FB7B03F12002EA
:101EE00000E0FA7B3B681B78BB73BB7B01331A496C
:101EF0000B441B7803F00303012B02D1BB7B20337F
:101F000000E0BB7B9A42D0D07B681B787B737B7BE5
:101F10000133114A13441B7803F00303012B03D14F
:101F20007B7B03F1200200E07A7B3B681B783B73EC
:101F30003B7B013308490B441B7803F00303012B5F
:101F400002D13B7B203300E03B7BD31A1846143789
:101F5000BD4680BC704700BFB082000880B584B029
:101F600000AF786039600023FB600023BB607B68B2
:101F7000002B01D1002315E07868FEF703F9034632
:101F80000133FB603B681B68F8689847B860BB6822
:101F9000002B01D1002305E0FA687968B86802F0E7
:101FA000A9FBBB6818461037BD4680BD80B584B01C
:101FB00000AF78607B681B6828209847F860FB6852
:101FC000002B04D028220021F86802F0A1FBFB6856
:101FD00018461037BD4680BD80B584B000AF78602C
:101FE0000023FB603DE07B681B68FB607B68DB686F
:101FF00003F48073002B08D17B689B68002B04D00E
:102000007B689B681846FFF7E7FF7B68DB6803F493
:102010008073002B0CD17B681B69002B08D0154BFB
:102020005B687A681269104698477B6800221A61DB
:102030007B68DB6803F40073002B0CD17B681B6AA0
:10204000002B08D00B4B5B687A68126A10469847E1
:102050007B6800221A62074B5B6878689847FB68C8
:102060007B607B68002BBED100BF00BF1037BD4630
:1020700080BD00BF0000002080B400AF2E231846B2
:10208000BD4680BC7047000080B598B000AF786056
:1020900039604FF000024FF00003C7E9142300231A
:1020A000BB64FFF7E9FF034687F84F300023FB6569
:1020B0003B68002B03D03B681B68002B01D1002339
:1020C000C6E00023FB6563E03B681A683B689968DB
:1020D000FB6D0B4413441B78452B3DDC2B2B66DB3F
:1020E0002B3B1A2B63D801A252F823F05D21000884
:1020F000AF2100085D2100087B210008AF21000806
:102100005D2100085D2100085D2100085D210008B7
:102110005D2100085D2100085D2100085D210008A7
:102120005D2100085D210008AF210008AF210008F3
:10213000AF210008AF210008AF210008AF2100083F
:10214000AF210008AF210008AF210008AF2100082F
:10215000AF2100085D210008652B28D13B681A6873
:102160003B689968FB6D0B441344197807F108022A
:10217000FB6D13440A461A7007E007F10802FB6D75
:10218000134497F84F201A7000BFFB6D0133FB65B5
:10219000FB6D3E2B0DD83B68002B0AD03B689A683C
:1021A000FB6D1A443B685B689A428DD301E000BF27
:1021B00000E000BF07F10802FB6D134400221A7013
:1021C00007F1480207F108031146184603F048FAE0
:1021D000C7E91401BA6C07F108039A4201D1002340
:1021E00036E07968D7E91423C1E906231AA3D3E9B5
:1021F0000023D7E91401FEF70FFC0346002B04D09F
:102200007B686FF000425A6115E04FF00002144BFA
:10221000D7E91401FEF7F6FB0346002B04D07B68D8
:102220004FF000425A6106E0D7E91401FEF71EFCA8
:1022300002467B685A617B680822DA603B689B68CB
:10224000B96C07F108028A1A1A443B689A600123A4
:1022500018466037BD4680BD0000C0FFFFFFDF416C
:102260000000E0C180B584B000AF78603960002321
:10227000FB600023BB607B68002B03D07B681B687E
:10228000002B01D1002383E07B685B68002B07D023
:102290007B689A687B685B689A4201D3002377E089
:1022A0003B68002B01DA002372E07B689A683B6888
:1022B000134401333B607B685B683A689A4205D8F7
:1022C0007B681A687B689B68134461E07B681B69C4
:1022D000002B01D000235BE03B68B3F1804F08D3B3
:1022E0003B68002B03DB6FF00043BB6004E000237E
:1022F0004EE03B685B00BB607B681B6A002B18D01C
:102300007B681B6A7A681268B96810469847F8605B
:10231000FB68002B32D17B68DB697A681268104653
:1023200098477B6800225A607B6800221A6000236D
:102330002EE07B689B69B8689847F860FB68002BC3
:102340000DD17B68DB697A681268104698477B6814
:1023500000225A607B6800221A60002318E07B6824
:1023600019687B689B6801331A46F86802F0C2F965
:102370007B68DB697A681268104698477B68BA68A0
:102380005A607B68FA681A607B689B68FA68134435
:1023900018461037BD4680BD90B585B000AF786057
:1023A0000023FB607B68002B13D07B681B68002B2D
:1023B0000FD07B681A687B689B681344FB607B685E
:1023C0009C68F868FDF7DEFE0346E2187B689A60B9
:1023D00000E000BF1437BD4690BD00002DE9B043BA
:1023E0008AB000AFC7E90601C7E90423BB69BB6037
:1023F000FB6923F00043FB603B693B607B6923F092
:1024000000437B60D7E90023D7E90201FEF70EFB0A
:102410000346002B04D0BC69FB6923F0004503E0B0
:102420003C697B6923F00045C7E90845D7E90423E7
:10243000D7E90601FDF7B2FE02460B46904623F0AF
:1024400000494FF000020C4BD7E90801FEF75EF897
:1024500002460B4601210C4640464946FEF7D2FA99
:102460000346002B01D100231C46E3B2184628374F
:10247000BD46BDE8B08300BF0000B03CF0B593B0EE
:1024800000AF786039600023FB637B68D3E90623E3
:10249000C7E90C2300237B6400233B6400237B619A
:1024A00007F1180300221A605A609A60DA601A6114
:1024B0009A82FFF7E1FD034687F82F304FF00002C4
:1024C0004FF00003C7E902233B68002B01D1002332
:1024D000B0E0D7E90C23D7E90C01FEF7B1FA0346C7
:1024E000002B21D13C6B7B6B23F0004501231E4662
:1024F0004FF0FF32514B20462946FEF7A1FA034622
:10250000002B0BD14FF0FF324C4B20462946FEF7F3
:1025100079FA0346002B01D100231E46F3B283F063
:102520000103DBB2002B07D007F11403444918461E
:1025300002F0EAF978643BE07B685B691846FDF7D6
:102540007BFF02460B46D7E90C01FEF747FA03462C
:10255000002B09D07B685A6907F1140339491846E2
:1025600002F0D2F9786423E007F11400D7E90C23D4
:10257000354902F0C9F9786407F1080207F114033C
:102580003249184602F0E0F90346012B08D1D7E999
:102590000201D7E90C23FFF721FF0346002B07D1E7
:1025A00007F11400D7E90C23294902F0ADF978644A
:1025B0007B6C002B02DB7B6C192B01DD002339E0E7
:1025C0007B6C013319463868FFF74CFEF863FB6BF0
:1025D000002B01D100232DE000233B641AE007F11A
:1025E00014023B6C13441B7897F82F209A4205D1B4
:1025F000FA6B3B6C13442E221A7008E0FA6B3B6CAA
:10260000134407F114013A6C0A4412781A703B6CB7
:1026100001333B647B6C3A6C9A42E0D3FA6B3B6CBF
:10262000134400221A703B689A687B6C1A443B681A
:102630009A60012318464C37BD46F0BDFFFFEF7F7F
:10264000448100084C81000850810008588100082E
:102650005C81000880B485B000AF78600023FB6027
:102660000023BB600023BB604CE07A68BB68134466
:102670001B782F2B0FD97A68BB6813441B78392B32
:1026800009D87A68BB6813441B781A46FB68134460
:10269000303BFB602DE07A68BB6813441B78402B0D
:1026A0000FD97A68BB6813441B78462B09D87A681F
:1026B000BB6813441B781A46FB681344373BFB6026
:1026C00017E07A68BB6813441B78602B0FD97A68CF
:1026D000BB6813441B78662B09D87A68BB6813441F
:1026E0001B781A46FB681344573BFB6001E000234C
:1026F0000CE0BB68022B02D8FB681B01FB60BB68C7
:102700000133BB60BB68032BAFD9FB681846143795
:10271000BD4680BC7047000080B58AB000AFF8604D
:10272000B9607A6000237B620023FB61FB68BB61B8
:10273000002387F82330002387F82230002387F80E
:102740002130002387F82030BA68BB69D31A052BE3
:1027500040F3B780BB6902331846FFF77BFFF8618F
:10276000FB69B3F55C4F04D3FB69B3F5604FC0F070
:10277000AA80FB69B3F5584F37D3FB69B3F55C4FBB
:1027800033D2BB6906337B6100233B610C2387F89E
:102790002130BA687B69D31A052B40F396807B6998
:1027A0001B785C2B40F093807B6901331B78752B81
:1027B00040F08D807B6902331846FFF74BFF38618C
:1027C0003B69B3F55C4FC0F084803B69B3F5604F63
:1027D0007FD2FB699A02434B13403A69C2F3090264
:1027E000134303F580337B6204E0062387F821302E
:1027F000FB697B627B6A7F2B03D8012387F8233038
:102800001FE07B6AB3F5006F06D2022387F82330FE
:10281000C02387F8203014E07B6AB3F5803F06D2EE
:10282000032387F82330E02387F8203009E07B6A10
:10283000B3F5881F4FD2042387F82330F02387F89D
:10284000203097F82330013B87F8223015E07B6A6F
:10285000DBB203F03F03DAB27B68196897F82230E5
:102860000B4462F07F02D2B21A707B6A9B097B62D2
:1028700097F82230013B87F8223097F82230002B5E
:10288000E5D197F82330012B09D97B6AD9B27B684F
:102890001B6897F820200A43D2B21A7007E07B6ABF
:1028A000DAB27B681B6802F07F02D2B21A707B68D2
:1028B0001A6897F823301A447B681A6097F8213019
:1028C0000BE000BF08E000BF06E000BF04E000BF6F
:1028D00002E000BF00E000BF002318462837BD46D5
:1028E00080BD00BF00FC0F0080B58AB000AF7860EB
:1028F00039603B681A683B689B68013313447B620C
:102900003B681A683B689B68013313443B620023B1
:10291000FB600023FB613B681A683B689B681344BB
:102920001B78222B40F0028100233B610023BB6116
:1029300017E03B6A1B785C2B10D13B6A5A1C3B6842
:102940001B68D31A1A463B685B689A4280F0F08095
:10295000BB690133BB613B6A01333B623B6A0133B4
:102960003B623B681B683A6AD31A1A463B685B684D
:102970009A4203D23B6A1B78222BDAD13B681B6850
:102980003A6AD31A1A463B685B689A4280F0D28052
:102990003B6A1B78222B40F0CD803B681A683B686D
:1029A0009B6813443A6AD31A1A46BB69D31A3B612F
:1029B0003B681B693A69013210469847F861FB6928
:1029C000002B00F0B980FB69FB6093E07B6A1B7809
:1029D0005C2B08D07A6A531C7B62FB68591CF96037
:1029E00012781A7086E00223FB753A6A7B6AD31A62
:1029F000002B40F3A3807B6A01331B78752B00F317
:102A00009F805C2B04DA222B5CD02F2B5AD097E0CE
:102A10005C3B192B00F2948001A252F823F000BF16
:102A2000C52A0008412B0008412B0008412B000853
:102A3000412B0008412B0008892A0008412B00087F
:102A4000412B0008412B0008952A0008412B000863
:102A5000412B0008412B0008412B0008412B0008A6
:102A6000412B0008412B0008A12A0008412B000837
:102A7000412B0008412B0008AD2A0008412B00081B
:102A8000B92A0008D32A0008FB685A1CFA600822F9
:102A90001A702BE0FB685A1CFA600C221A7025E0B1
:102AA000FB685A1CFA600A221A701FE0FB685A1C65
:102AB000FA600D221A7019E0FB685A1CFA600922AC
:102AC0001A7013E0FB685A1CFA607A6A52781A701E
:102AD0000CE007F10C031A46396A786AFFF71CFE0E
:102AE0000346FB75FB7D002B2CD000BFFB7D7A6A73
:102AF00013447B627A6A3B6A9A42FFF467AFFB68D1
:102B000000221A707B681022DA607B68FA691A6109
:102B10003B681B683A6AD31A1A463B689A603B685E
:102B20009B685A1C3B689A60012320E000BF0AE0C2
:102B300000BF08E000BF06E000BF04E000BF02E005
:102B400000BF00E000BFFB69002B05D03B685B695C
:102B5000F86998470023FB617B6A002B06D03B682D
:102B60001B687A6AD31A1A463B689A600023184693
:102B70002837BD4680BD00BF80B588B000AF786003
:102B800039600023FB6100233B610023BB6100230C
:102B9000FB6000237B613B68002B01D1002310E127
:102BA0007B68002B11D103213868FFF75BFB38618C
:102BB0003B69002B01D1002303E13B69834A118863
:102BC000927819809A700123FBE07B68FB6123E017
:102BD000FB691B78222B0EDC082B12DB083B012241
:102BE0009A407B4B1340002B14BF01230023DBB220
:102BF000002B02D105E05C2B03D17B6901337B61A3
:102C000007E0FB691B781F2B02D87B6905337B61CA
:102C100000BFFB690133FB61FB691B78002BD7D137
:102C2000FA697B68D31A1A467B691344FB60FB6818
:102C3000033319463868FFF715FB38613B69002BF1
:102C400001D10023BDE07B69002B17D13B69222213
:102C50001A703B690133FA687968184601F04AFD39
:102C6000FB6801333A69134422221A70FB6802336D
:102C70003A69134400221A700123A2E03B69222220
:102C80001A703B690133BB617B68FB6187E0FB69BC
:102C90001B781F2B0CD9FB691B78222B08D0FB69F2
:102CA0001B785C2B04D0FB691A78BB691A7070E042
:102CB000BB695A1CBA615C221A70FB691B78222B13
:102CC0003EDC082B5ADB083B1A2B57D801A252F8DE
:102CD00023F000BF552D0008752D0008652D000854
:102CE0007D2D00085D2D00086D2D00087D2D00084C
:102CF0007D2D00087D2D00087D2D00087D2D00080C
:102D00007D2D00087D2D00087D2D00087D2D0008FB
:102D10007D2D00087D2D00087D2D00087D2D0008EB
:102D20007D2D00087D2D00087D2D00087D2D0008DB
:102D30007D2D00087D2D00087D2D00084D2D0008FB
:102D40005C2B1BD1BB695C221A7022E0BB6922227A
:102D50001A701EE0BB6962221A701AE0BB69662213
:102D60001A7016E0BB696E221A7012E0BB697222FB
:102D70001A700EE0BB6974221A700AE0FB691B78B6
:102D80001A461449B86901F0BFFDBB690433BB6141
:102D900000BFFB690133FB61BB690133BB61FB69A8
:102DA0001B78002B7FF473AFFB6801333A6913443F
:102DB00022221A70FB6802333A69134400221A7007
:102DC000012318462037BD4680BD00BF648100083E
:102DD000370000046881000880B582B000AF7860D9
:102DE00039607B681B6939681846FFF7C5FE0346E2
:102DF00018460837BD4680BD80B483B000AF786008
:102E00007B68002B03D07B681B68002B01D100235B
:102E10002CE07B68002B05D07B689A687B685B6838
:102E20009A4206D37B6821E07B689B685A1C7B68CA
:102E30009A607B68002B0DD07B689A687B685B6822
:102E40009A4207D27B681A687B689B6813441B7898
:102E5000202BE9D97B689A687B685B689A4204D129
:102E60007B689B685A1E7B689A607B6818460C37A3
:102E7000BD4680BC7047000080B582B000AF78606E
:102E80007B68002B07D07B681B68002B03D07B6816
:102E90009B68002B01D000231CE07B68002B18D01E
:102EA0007B689B681A1D7B685B689A4211D27B68BD
:102EB0001A687B689B68134403220849184601F08E
:102EC000B2FD0346002B04D17B689B68DA1C7B684B
:102ED0009A607B6818460837BD4680BD708100083F
:102EE00080B586B000AFF860B9607A60FB68002BEF
:102EF00001D100230CE0F868FDF744F903460133E3
:102F00007B617B68BA687969F86800F005F8034668
:102F100018461837BD4680BD80B58EB000AFF8604A
:102F2000B9607A603B6007F1180300221A605A60AA
:102F30009A60DA601A615A619A6100237B63414B9F
:102F400000221A603F4B00225A60FB68002B42D0DF
:102F5000BB68002B3FD0FB68BB61BB68FB610023F3
:102F60003B62394A07F1280307CA83E8070036485D
:102F7000FFF71CF878637B6B002B2ED007F118034A
:102F80001846FFF779FF03461846FFF735FF03465B
:102F90001946786B00F002F90346002B1FD03B68FE
:102FA000002B0ED007F118031846FFF725FF3A6AE9
:102FB000FB699A4215D2BA693B6A13441B78002B0D
:102FC0000FD17B68002B04D0BA693B6A1A447B6836
:102FD0001A607B6B31E000BF04E000BF02E000BF7D
:102FE00000E000BF7B6B002B02D0786BFEF7F4FF94
:102FF000FB68002B20D0FB683B6100237B613A6AB1
:10300000FB699A4202D23B6A7B6105E0FB69002BB7
:1030100002D0FB69013B7B617B68002B04D03A69DD
:103020007B691A447B681A60064B1A4607F1100345
:1030300093E8030082E80300002318463837BD46B2
:1030400080BD00BF940200200000002080B582B047
:1030500000AF7860002200217868FFF741FF034647
:1030600018460837BD4680BD80B58EB000AFF86009
:10307000B9607A6000237B6307F1100324220021EA
:10308000184601F045FB7B681B683B4A12681046F6
:10309000984703463B61384B1B687B61BB687B628A
:1030A0007A6807F1280307CA83E807003B69002B09
:1030B00042D007F110031946F86800F05BF90346A7
:1030C000002B3BD007F110031846FFF765F97B682A
:1030D0009B68002B0DD07B689B683869BA69013208
:1030E0001146984778637B6B002B29D000233B6106
:1030F00020E07B681B68BA69013210469847786304
:103100007B6B002B1ED03969BB695A1C7B699342CB
:1031100028BF13461A46786B01F0ECFABB697A6B4C
:10312000134400221A707B685B683A69104698471E
:1031300000233B617B6B1AE000BF04E000BF02E0AC
:1031400000BF00E000BF3B69002B06D07B685B68D6
:103150003A691046984700233B617B6B002B05D0F2
:103160007B685B68786B984700237B630023184675
:103170003837BD4680BD00BFAC82000880B582B044
:1031800000AF7860044A00217868FFF76DFF0346BE
:1031900018460837BD4680BD0000002080B582B0CB
:1031A00000AF786039603B68002B03D03B681B6838
:1031B000002B01D10023D2E03B68002B1DD03B68DF
:1031C0009B681A1D3B685B689A4216D83B681A6870
:1031D0003B689B68134404226349184601F023FCB2
:1031E0000346002B09D17B680422DA603B689B68A8
:1031F0001A1D3B689A600123B1E03B68002B1DD08B
:103200003B689B685A1D3B685B689A4216D83B68CE
:103210001A683B689B68134405225449184601F01C
:1032200002FC0346002B09D17B680122DA603B686F
:103230009B685A1D3B689A60012390E03B68002B15
:1032400020D03B689B681A1D3B685B689A4219D87E
:103250003B681A683B689B6813440422444918463B
:1032600001F0E1FB0346002B0CD17B680222DA60FF
:103270007B6801225A613B689B681A1D3B689A6013
:1032800001236CE03B68002B13D03B689A683B68D5
:103290005B689A420DD23B681A683B689B6813448E
:1032A0001B78222B05D139687868FFF71DFB034690
:1032B00055E03B68002B23D03B689A683B685B680D
:1032C0009A421DD23B681A683B689B6813441B787E
:1032D0002D2B0FD03B681A683B689B6813441B7802
:1032E0002F2B0DD93B681A683B689B6813441B78E9
:1032F000392B05D839687868FEF7C6FE03462EE0FC
:103300003B68002B13D03B689A683B685B689A4225
:103310000DD23B681A683B689B6813441B785B2B93
:1033200005D13968786800F009F9034617E03B6871
:10333000002B13D03B689A683B685B689A420DD2B9
:103340003B681A683B689B6813441B787B2B05D14C
:103350003968786800F03CFA034600E0002318461C
:103360000837BD4680BD00BF448100087481000855
:103370007C81000880B584B000AF7860396000239C
:10338000FB607B68002B02D03B68002B01D100233F
:10339000C9E07B68DB68DBB2802B00F08E80802B7D
:1033A00000F3C080202B49DC002B40F3BB80013BA5
:1033B0001F2B00F2B78001A252F823F067340008F7
:1033C0008B340008253500084334000825350008F3
:1033D0002535000825350008AF34000825350008DC
:1033E0002535000825350008253500082535000855
:1033F0002535000825350008013500082535000869
:103400002535000825350008253500082535000834
:103410002535000825350008253500082535000824
:103420002535000825350008253500082535000814
:1034300025350008253500080D350008402B6BD0D8
:1034400070E005213868FEF70DFFF860FB68002B7F
:1034500001D1002367E0FB68354A106818601279D3
:103460001A7101235FE006213868FEF7FBFEF86061
:10347000FB68002B01D1002355E0FB682D4A106842
:10348000186092889A8001234DE005213868FEF784
:10349000E9FEF860FB68002B01D1002343E0FB68E4
:1034A000254A1068186012791A7101233BE03968C7
:1034B0007868FEF7E3FF034635E00023BB607B68D6
:1034C0001B69002B01D100232DE07B681B69184686
:1034D000FCF758FE03460133BB60B9683868FEF755
:1034E000C1FEF860FB68002B01D100231BE07B6864
:1034F0001B69BA681946F86801F0FCF8012312E06C
:1035000039687868FFF768FC03460CE0396878682A
:1035100000F0D8F8034606E03968786800F064FAED
:10352000034600E0002318461037BD4680BD00BFAB
:1035300044810008748100087C81000880B586B051
:1035400000AF7860396000237B6100233B613B68FA
:10355000DB68B3F57A7F01D30023AFE03B68DB681B
:103560005A1C3B68DA603B681A683B689B681344E6
:103570001B785B2B40F094803B689B685A1C3B682F
:103580009A603868FFF738FC3B68002B0DD03B6829
:103590009A683B685B689A4207D23B681A683B6846
:1035A0009B6813441B785D2B61D03B68002B05D0D2
:1035B0003B689A683B685B689A4205D33B689B68A6
:1035C0005A1E3B689A6072E03B689B685A1E3B68D3
:1035D0009A603B6810331846FEF7E8FCF860FB6819
:1035E000002B5FD07B69002B04D1FB687B617B697A
:1035F0003B6107E03B69FA681A60FB683A695A6008
:10360000FB683B613B689B685A1C3B689A60386862
:10361000FFF7F2FB39683869FFF7C0FD0346002B5E
:1036200042D03868FFF7E8FB3B68002B0DD03B68C1
:103630009A683B685B689A4207D23B681A683B68A5
:103640009B6813441B782C2BC3D03B68002B2DD0D8
:103650003B689A683B685B689A4227D23B681A6865
:103660003B689B6813441B785D2B1FD100E000BFB3
:103670003B68DB685A1E3B68DA607B69002B02D02E
:103680007B693A695A607B682022DA607B687A69D4
:103690009A603B689B685A1C3B689A6001230DE066
:1036A00000BF04E000BF02E000BF00E000BF7B6994
:1036B000002B02D07869FEF78FFC002318461837DC
:1036C000BD4680BD80B586B000AF7860396000230C
:1036D0007B610023FB607B689B683B613B68002B40
:1036E00001D1002370E001213868FEF7BBFD78614D
:1036F0007B69002B01D1002366E07B695B221A7095
:103700003B689B685A1C3B689A603B68DB685A1CA4
:103710003B68DA603DE039683869FFF72BFE034605
:10372000002B01D100234FE03868FEF735FE3B69DE
:103730001B68002B2AD03B685B69002B01D0022359
:1037400000E00123FB60FB68013319463868FEF78F
:1037500089FD78617B69002B01D1002334E07B690E
:103760005A1C7A612C221A703B685B69002B04D0CA
:103770007B695A1C7A6120221A707B6900221A70B8
:103780003B689A68FB681A443B689A603B691B680F
:103790003B613B69002BBED102213868FEF762FD18
:1037A00078617B69002B01D100230DE07B695A1CF5
:1037B0007A615D221A707B6900221A703B68DB68AF
:1037C0005A1E3B68DA60012318461837BD4680BD93
:1037D00080B586B000AF7860396000237B6100233C
:1037E0003B613B68DB68B3F57A7F01D30023F7E0E8
:1037F0003B68DB685A1C3B68DA603B68002B00F0D2
:10380000DB803B689A683B685B689A4280F0D480B2
:103810003B681A683B689B6813441B787B2B40F01D
:10382000CB803B689B685A1C3B689A603868FFF7FE
:10383000E3FA3B68002B0ED03B689A683B685B68F4
:103840009A4208D23B681A683B689B6813441B780D
:103850007D2B00F098803B68002B05D03B689A6870
:103860003B685B689A4205D33B689B685A1E3B687D
:103870009A60AEE03B689B685A1E3B689A603B6862
:1038800010331846FEF792FBF860FB68002B00F03F
:1038900095807B69002B04D1FB687B617B693B6170
:1038A00007E03B69FA681A60FB683A695A60FB688E
:1038B0003B613B68002B00F083803B689B685A1C8F
:1038C0003B685B689A427BD23B689B685A1C3B68AA
:1038D0009A603868FFF790FA39683869FFF704F89A
:1038E0000346002B6ED03868FFF786FA3B691A69E9
:1038F0003B691A623B6900221A613B68002B63D066
:103900003B689A683B685B689A425DD23B681A687C
:103910003B689B6813441B783A2B55D13B689B68E6
:103920005A1C3B689A603868FFF766FA396838694C
:10393000FFF734FC0346002B48D03868FFF75CFAE9
:103940003B68002B0DD03B689A683B685B689A42E5
:1039500007D23B681A683B689B6813441B782C2B82
:103960008DD03B68002B33D03B689A683B685B681E
:103970009A422DD23B681A683B689B6813441B78B7
:103980007D2B25D100E000BF3B68DB685A1E3B68F9
:10399000DA607B69002B02D07B693A695A607B68E8
:1039A0004022DA607B687A699A603B689B685A1C9F
:1039B0003B689A60012313E000BF0AE000BF08E003
:1039C00000BF06E000BF04E000BF02E000BF00E06F
:1039D00000BF7B69002B02D07869FEF7FDFA002357
:1039E00018461837BD4680BD80B588B000AF7860F6
:1039F00039600023FB610023FB607B689B68BB612F
:103A00003B68002B01D1002308E13B685B69002B78
:103A100001D0022300E00123FB60FB68013319465B
:103A20003868FEF71FFCF861FB69002B01D1002309
:103A3000F4E0FB695A1CFA617B221A703B68DB6870
:103A40005A1C3B68DA603B685B69002B04D0FB6959
:103A50005A1CFA610A221A703B689A68FB681A4479
:103A60003B689A60A0E03B685B69002B22D03B6812
:103A7000DB6819463868FEF7F5FBF861FB69002B37
:103A800001D10023CAE000237B6107E0FB695A1CD7
:103A9000FA6109221A707B6901337B613B68DB683C
:103AA0007A699A42F2D33B689A683B68DB681A44A9
:103AB0003B689A60BB691B6A39681846FFF75CF877
:103AC0000346002B01D10023A8E03868FEF764FC10
:103AD0003B685B69002B01D0022300E00123FB60FF
:103AE000F9683868FEF7BEFBF861FB69002B01D16D
:103AF000002393E0FB695A1CFA613A221A703B6872
:103B00005B69002B04D0FB695A1CFA6109221A7008
:103B10003B689A68FB681A443B689A603968B869E0
:103B2000FFF728FC0346002B01D1002376E038681C
:103B3000FEF732FC3B685B69002B01D0012200E0FC
:103B40000022BB691B68002B01D0012300E0002389
:103B50001344FB60FB68013319463868FEF782FBAB
:103B6000F861FB69002B01D1002357E0BB691B689A
:103B7000002B04D0FB695A1CFA612C221A703B6896
:103B80005B69002B04D0FB695A1CFA610A221A7087
:103B9000FB6900221A703B689A68FB681A443B680C
:103BA0009A60BB691B68BB61BB69002B7FF45BAF8C
:103BB0003B685B69002B03D03B68DB68013300E0A6
:103BC000022319463868FEF74DFBF861FB69002BAC
:103BD00001D1002322E03B685B69002B10D0002359
:103BE0003B6107E0FB695A1CFA6109221A703B69C4
:103BF00001333B613B68DB68013B3A699A42F1D390
:103C0000FB695A1CFA617D221A70FB6900221A7046
:103C10003B68DB685A1E3B68DA6001231846203790
:103C2000BD4680BD80B586B000AFF860B9607A60EF
:103C300000237B61FB68002B02D0BB68002B01D105
:103C4000002333E0FB689B687B617B68002B17D007
:103C500002E07B691B687B617B69002B1CD07B6960
:103C60001B6A002B18D07B691B6A1946B868FCF7E1
:103C70007FFA0346002BECD10EE07B691B687B6169
:103C80007B69002B08D07B691B6A1946B868FEF770
:103C9000F9F80346002BF0D17B69002B03D07B6938
:103CA0001B6A002B01D1002300E07B6918461837FE
:103CB000BD4680BD80B582B000AF7860396000221B
:103CC00039687868FFF7AEFF034618460837BD46E7
:103CD00080BD80B483B000AF786039607B683A689B
:103CE0001A603B687A685A6000BF0C37BD4680BCDA
:103CF000704780B584B000AF786039600023FB6006
:103D00003B68002B06D07B68002B03D07A683B68A9
:103D10009A4201D100231EE07B689B68FB60FB6830
:103D2000002B09D17B683A689A603B683A685A6010
:103D30003B6800221A600DE0FB685B68002B09D02D
:103D4000FB685B6839681846FFF7C3FF7B689B68B0
:103D50003A685A60012318461037BD4680BD80B4CA
:103D600083B000AF78607B6818460C37BD4680BCD6
:103D7000704780B586B000AFF860B9607A603B608C
:103D800000237B6100233B61FB68002B09D0BB68EB
:103D9000002B06D07B68002B03D0FA687B689A4220
:103DA00001D1002336E03B6A002B09D0B868FFF749
:103DB000D6FF78617B68DB6843F400733B610EE0FB
:103DC0003968B868FEF7CAF878617B69002B01D1C1
:103DD00000231FE07B68DB6823F400733B617B6892
:103DE000DB6803F40073002B09D17B681B6A002B8E
:103DF00005D03B685B687A68126A104698477B6812
:103E00007A691A627B683A69DA607968F868FFF75C
:103E100070FF034618461837BD4680BD80B588B090
:103E200002AFF860B9607A60786800F019F87861DC
:103E300000230093094B7A69B968F868FFF799FF86
:103E40000346002B01D07B6903E07869FEF7C4F8D4
:103E5000002318461837BD4680BD00BF0000002073
:103E600080B584B000AF78600F48FEF79FF8F86027
:103E7000FB68002B12D0FB681022DA600A497868D0
:103E8000FEF76CF80246FB681A61FB681B69002BA1
:103E900004D1F868FEF7A0F8002300E0FB6818469C
:103EA0001037BD4680BD00BF0000002080B582B045
:103EB00000AF0748FEF77AF878607B68002B02D0E5
:103EC0007B684022DA607B6818460837BD4680BDB3
:103ED0000000002080B584B000AFFDF7C5F8FDF705
:103EE000FDF902210220FDF7D5F802210320FDF79C
:103EF000D1F802210420FDF7CDF802210920FDF7B9
:103F0000C9F801210020FDF7C5F801210120FDF7C6
:103F1000C1F802210020FDF7BDF802210E20FDF7B7
:103F2000B9F8FDF7F9F8FDF7F1FAFDF72BFB134AA5
:103F30003B1D07CA83E807003B1D1846FDF7DEFB63
:103F40000020FDF78BFD00230D4A4FF4FA7100208D
:103F5000FDF73AFE4FF4FA730A4A41F28831012024
:103F6000FDF732FE4FF47A73074A4FF4FA610220EC
:103F7000FDF72AFEFDF758FEFEE700BFA48100080A
:103F8000AD4000088D3F0008D53F0008B0B500AF38
:103F90000D4B1B78002B14D00C4B1C680C4B1D6870
:103FA000FDF7CEFE03461846FDF706F80346DBB2E2
:103FB000184600F033FA03461A462946204600F018
:103FC0002DF800BFB0BD00BF9C0200200C000020F7
:103FD00014000020B0B500AF0D4B1B78002B14D09F
:103FE0000C4B1C680C4B5D68FDF7E0FE0346184661
:103FF000FCF7E2FF0346DBB2184600F00FFA034677
:104000001A462946204600F009F800BFB0BD00BF9F
:104010009D0200200C0000201400002080B586B016
:1040200000AFF860B9607A60FFF740FF78617B69A4
:10403000002B04D100211848FDF7F4FC29E0FA68B0
:1040400016497869FFF7EAFEBA6815497869FFF7FB
:10405000E5FE7A6813497869FFF7E0FE7869FFF7B3
:104060008DF838613B69002B0CD000213869FDF7D1
:10407000D9FC00210D20FDF77FFC00210A20FDF76F
:104080007BFC03E000210848FDF7CCFC7869FDF7D4
:10409000A3FF1837BD4680BDB0810008D881000855
:1040A000E4810008EC810008F4810008B0B5A0B0FC
:1040B00000AF0023FB670020FDF78AFC034687F86A
:1040C0007B3097F87B3000211846FDF755FC97F8B8
:1040D0007B300A2B03D097F87B300D2B0ED13A465C
:1040E000FB6F134400221A7000BF3B461846FEF7D0
:1040F000ADFF78677B6F002B30D110E0FB6F5A1C4F
:10410000FA6780333B4497F87B2003F8802CFB6FE1
:10411000622BD0D900210E48FDF784FC5CE1FDF74D
:10412000A3FE78667B6E002B0CD000210948FDF7BA
:1041300079FC0021786EFDF775FC00210D20FDF75C
:104140001BFC49E100210448FDF76CFC44E100BF81
:104150001C820008348200084C820008A049786F55
:10416000FFF7A8FD38679F49786FFFF7A3FDF86652
:104170009D49786FFFF79EFDB8663B6F1B699B49B1
:104180001846FBF7F5FF0346002B1BD1FB6E1B699E
:10419000974A926811461846FBF7EAFF0346002B40
:1041A00010D1BB6E1B6993491846FBF7E1FF03462C
:1041B000002B07D1904B1B688D4A91688F4A184697
:1041C000FFF72CFF3B6F1B698D491846FBF7D0FFAB
:1041D0000346002B15D1FB6E1B69854A9268114678
:1041E0001846FBF7C5FF0346002B0AD1BB6E1B69BF
:1041F00084491846FBF7BCFF0346002B01D1FDF7AD
:104200000BFE3B6F1B697E491846FBF7B1FF034667
:10421000002B15D1FB6E1B69754A92681146184632
:10422000FBF7A6FF0346002B0AD1BB6E1B6976493C
:104230001846FBF79DFF0346002B01D1FDF7F5FD66
:104240003B6F1B6971491846FBF792FF0346002B31
:1042500023D1FB6E1B69664A926811461846FBF72C
:1042600087FF0346002B18D1BB6E1B6961491846B6
:10427000FBF77EFF0346002B0FD15F4B5C685C4B66
:104280009D68FDF7DBFD0346184600F0C7F80346BE
:104290001A4629462046FFF7C1FE3B6F1B6953496A
:1042A0001846FBF765FF0346002B1ED1FB6E1B690A
:1042B0004F4A126811461846FBF75AFF0346002B77
:1042C00013D1BB6E1B694B491846FBF751FF0346E0
:1042D000002B0AD14E4B01221A70474B1B68444AEF
:1042E0001168464A1846FFF799FE3B6F1B6949491A
:1042F0001846FBF73DFF0346002B1CD1FB6E1B69E4
:104300003B4A126811461846FBF732FF0346002B62
:1043100011D1BB6E1B69184600F094F803469BB29E
:104320001A465201D21A92001344DB009BB219467E
:104330000120FDF789FC3B6F1B692C491846FBF7F0
:1043400017FF0346002B1ED1FB6E1B69284A5268DB
:1043500011461846FBF70CFF0346002B13D1BB6E2A
:104360001B6924491846FBF703FF0346002B0AD1BB
:10437000294B01221A70204B1B681D4A51681F4AA5
:104380001846FFF74BFE3B6F1B6922491846FBF7A7
:10439000EFFE0346002B1CD1FB6E1B69144A5268CA
:1043A00011461846FBF7E4FE0346002B11D1BB6E05
:1043B0001B69184600F046F803469BB21A465201A4
:1043C000D21A92001344DB009BB219460220FDF77B
:1043D0003BFC786FFDF700FE8037BD46B0BD00BFE7
:1043E00060820008E4810008EC810008688200080F
:1043F000140000206C8200080C0000207482000869
:104400007C8200088082000884820008888200087C
:104410009C0200208C8200089D02002080B582B0A2
:1044200000AF0346FB71FB791A460449044800F0CB
:104430006BFA034B18460837BD4680BD90820008D2
:10444000A002002080B485B000AF78600023FB603C
:104450000023BB601DE0BB687A6813441B782F2BD8
:1044600005D9BB687A6813441B78392B01D900231E
:1044700016E0FA6813469B0013445B001946BB68BC
:104480007A6813441B780B44303BFB60BB680133F4
:10449000BB60BB687A6813441B78002BDBD1FB68D8
:1044A00018461437BD4680BC704780B400AF012366
:1044B0001846BD4680BC704780B582B000AF7860BA
:1044C000396000F0DDF8034616221A604FF0FF3322
:1044D00018460837BD4680BD80B582B000AF786011
:1044E0004FF0FF317868FFF7E7FFFEE780B586B051
:1044F00000AFF860B9607A6000237B610AE0AFF337
:1045000000800146BB685A1CBA60CAB21A707B6947
:1045100001337B617A697B689A42F0DB7B681846DD
:104520001837BD4680BD80B586B000AFF860B96071
:104530007A6000237B6109E0BB685A1CBA601B7873
:104540001846AFF300807B6901337B617A697B6831
:104550009A42F1DB7B6818461837BD4680BD80B4AF
:1045600083B000AF78604FF0FF3318460C37BD467C
:1045700080BC704780B483B000AF786039603B681E
:104580004FF400525A60002318460C37BD4680BCD9
:10459000704780B483B000AF7860012318460C37B1
:1045A000BD4680BC704780B485B000AFF860B9608C
:1045B0007A60002318461437BD4680BC704700005F
:1045C00080B586B000AF7860144A154BD31A7B6172
:1045D0007B693B61134B1B68002B02D1114B124AC4
:1045E0001A60104B1A687B6813443A699A4207D2E2
:1045F00000F046F803460C221A604FF0FF3309E042
:10460000084B1B68FB60074B1A687B681344054A1C
:104610001360FB6818461837BD4680BD0050002067
:1046200000040000AC020020C00200200D488546B6
:10463000AFF300800C480D490D4A002302E0D45826
:10464000C4500433C4188C42F9D30A4A0A4C0023DC
:1046500001E013600432A242FBD300F017F8FFF729
:1046600039FCFEE70050002000000020F40100208B
:1046700008870008F4010020C0020020FEE70000C7
:10468000014B1868704700BF2000002070B500265D
:104690000C4D0D4C641BA410A64209D103F03EFD45
:1046A00000260A4D0A4C641BA410A64205D170BD19
:1046B00055F8043B98470136EEE755F8043B984718
:1046C0000136F2E70087000800870008008700082D
:1046D00004870008024B0146186800F089B800BF43
:1046E00020000020024B0146186800F019B800BFF6
:1046F000200000200A44914200F1FF3300D17047AE
:1047000010B511F8014B914203F8014FF9D110BDDA
:1047100003460244934200D1704703F8011BF9E7B6
:1047200038B50546002940D051F8043C0C1F002B39
:10473000B8BFE41801F04CFB1C4A136833B963603E
:1047400014602846BDE8384001F048BBA34208D9B0
:10475000206821188B4201BF19685B680918216025
:10476000EDE71A465B680BB1A342FAD911685018FD
:10477000A0420BD120680144501883421160E0D15F
:1047800018685B68014411605360DAE702D90C23B2
:104790002B60D6E7206821188B4201BF19685B683F
:1047A0000918216063605460CBE738BDB002002077
:1047B00070B50E4E0C463168054611B900F094F8FC
:1047C00030602146284600F08FF8431C0AD0C41CF4
:1047D00024F00304A04207D0211A284600F084F8F0
:1047E000013001D14FF0FF34204670BDB4020020EB
:1047F0002DE9F041CD1C25F0030508350C2D38BFFF
:104800000C25002D074601DBA94205D90C23002603
:104810003B603046BDE8F0812E4E01F0D9FA336896
:104820001C4634BB29463846FFF7C2FF431C0446EA
:104830004DD134682646002E40D123683146384693
:1048400004EB030800F050F880453AD121680335A5
:104850006D1A25F0030508350C2D38BF0C25384698
:104860002946FFF7A5FF01302BD023682B44236096
:104870000EE02268521B1ED40B2A16D96119A342DE
:10488000256018BF5960636808BF316062514B6092
:10489000384604F10B0601F0A1FA26F00706231DA5
:1048A000F21AB6D09B1BA350B3E76268A3420CBFB9
:1048B00032605A60ECE723466468B2E734467668B3
:1048C000B9E70C2338463B6001F088FAA1E7256080
:1048D000DEE700BFB0020020024B0A46014618681E
:1048E00001F04EBF2000002038B50023054D0446DE
:1048F00008462B60FFF764FE431C02D12B6803B10E
:10490000236038BDB80200200EB46FF0004100B53E
:104910009CB01DAB0290069007910491084809498C
:1049200053F8042B0591006802A9019301F0B2FF2E
:104930000022029B1A701CB05DF804EB03B07047B4
:10494000200000200802FFFF0EB44FF4017230B5C2
:104950009CB01FAC54F8045BADF814200290069094
:10496000FBF710FC0B4B03900B9300230F93149356
:104970004FF6FF7307900848ADF816302A462346D5
:1049800002A90068019402F0DFF81CB0BDE83040D5
:1049900003B07047BF4900082000002010B50C4646
:1049A000B1F90E1002F032FD0028ABBF636DA38990
:1049B0001B1823F48053ACBF6365A38110BD002096
:1049C00070472DE9F0411F468B890546DB050C46F3
:1049D000164605D502230022B1F90E1001F0D4F9D4
:1049E000A389324623F48053A38128463B46B4F979
:1049F0000E10BDE8F04100F03FBE10B50C46B1F915
:104A00000E1001F0C1F9431CA38915BF606523F4A2
:104A1000805343F48053A38118BFA38110BDB1F923
:104A20000E1000F03BBE034610B572B10139841878
:104A300013F8010B11F8012F904201D1A34201D1CB
:104A4000801A10BD0028F3D1FAE71046F9E72DE9E6
:104A5000F0410F46904601F037FD04460D46B8F18F
:104A6000000F11D0C7F30A53C3F16B03002B0BDD0A
:104A700000241B0503F17F5505F5401522462B4602
:104A8000FBF744FD04460D4620462946BDE8F0816B
:104A90002DE9F04F9B4600239FB01A939E4B824610
:104AA0001F680E4638461592FBF76CFB4FF0000866
:104AB00004464FF000091996199B1A782B2A4CD0FE
:104AC0003AD80D2A33D8082A33D8002A3DD00023FB
:104AD0000A93199D2B78302B40F0AA806B7803F055
:104AE000DF03582B66D10A9B504601931AAB009303
:104AF0008A4ACDF808B01BAB19A900F047FE10F0A8
:104B00000706044605D0062E29D100230135199544
:104B10000A93159B002B40F08A850A9BD3B142462D
:104B200009F10043104619461FB0BDE8F08F202A56
:104B3000CDD101331993BFE72D2AC8D101220A92A2
:104B40005A1C19925B78002BC3D1159B1996002B28
:104B500040F06B8542464B46E4E70022EFE71A9AA5
:104B60003AB135211CA801F0B3FD50461A9901F065
:104B70007BF9013E042E06D8DFE806F00A0314177D
:104B80000A00DDE91C892107C3D549F00049C0E7C7
:104B90001B9ADDE91C8302F2334223F4801343EABB
:104BA0000259F0E7DFF87891EDE76FF000494FF038
:104BB000FF38E8E7199B5A1C19925B78302BF9D023
:104BC000002BA6D001230793199B0A2208930023E8
:104BD0009B46CDE9053319980578A5F13003D9B284
:104BE000092927D922463946FFF71DFF002833D06F
:104BF00000202A465C4603460490652A01D0452AD7
:104C000014D11CB9079A02439FD00024199E721C2C
:104C1000199272782B2A79D02D2A00F083800027F0
:104C2000A2F13001092940F28380199600259FE006
:104C30000023C8E7BBF1080FD5BF0699059902FB11
:104C4000013302FB013300F10100D4BF0693059349
:104C50000BF1010B1990BEE7199B1A1919921A5DF5
:104C6000BBF1000F36D05C460490A2F13003092B53
:104C700012D90123C1E7199B01305A1C19925A78A5
:104C8000302AF8D0A2F13103082B00F2D584049029
:104C900000200446199B0893303A00F1010313D019
:104CA000049905191944049123460A21AB4213D1F2
:104CB0002318082B04F1010404441BDC0A23069981
:104CC00003FB012306930023199A1846511C1991DE
:104CD0005278CAE75846D3E7082B04DC069F4F43B7
:104CE00006970133E2E75F1C102FDEBF059F4F439D
:104CF0000597F6E7102CDFBF0A23059903FB012374
:104D00000593E0E70023049301237BE70027B21C0F
:104D10001992B27884E700BF90840008C483000829
:104D20000000F07F0127F2E7199A511C199152787F
:104D3000302AF9D0A2F1310108293FF677AF4FF0C0
:104D40000A0EA2F1300C199A0992199A511C199164
:104D50005278A2F13005092D35D9099D491B082942
:104D600044F61F6502DC6545A8BF654607B16D4284
:104D7000002C4CD1079901437FF4CBAE002B7FF47C
:104D8000E4AE692A26D023DC492A23D04E2A7FF4B8
:104D9000DCAE9D4919A800F047FF00283FF4D5AECE
:104DA000199B1B78282B2CD198491CAA19A800F014
:104DB0004FFF052825D11D9BDDF8708043F0FF498A
:104DC00049F4E009A5E60EFB0C2CACF1300CBCE775
:104DD0006E2ADCE78E4919A800F026FF00283FF470
:104DE000B4AE199B8B49013B19A8199300F01CFF25
:104DF00010B9199B013319934FF00008DFF818928E
:104E000087E6864802F014FB8046894681E6049BCB
:104E1000BBF1000F08BFA346EB1A102C06982646DC
:104E20000793A8BF1026FBF7F7FA092C804689469E
:104E300013DD7B4B03EBC60353E91223FBF766FB41
:104E4000804605988946FBF7E7FA02460B4640463E
:104E50004946FBF7A5F9804689460F2C36DC079BAF
:104E6000002B3FF456AE22DD162B09DC6C4942467E
:104E700001EBC3014B46D1E90001FBF747FBC3E758
:104E8000079AC4F12503934220DB654DC4F10F045A
:104E900005EBC4014246D1E900014B46FBF736FB66
:104EA000079B1C1B05EBC405D5E90023E5E7079B21
:104EB00016330BDB049B40465D1B594B494603EB05
:104EC000C505D5E90023FBF74BFC9DE7079BA61B17
:104ED0001E44002E74DD16F00F030AD050494246DE
:104EE00001EBC301D1E900014B46FBF70FFB804604
:104EF000894636F00F0652D0B6F59A7F27DD4FF07F
:104F0000000BCDF810B0CDF820B0CDF818B02223AA
:104F10004FF00008DFF80091CAF80030089B002B22
:104F20003FF4F7AD50461A9900F09EFF504606999F
:104F300000F09AFF5046049900F096FF50460899F9
:104F400000F092FF5946504600F08EFFE1E5354BE8
:104F500040460593002349461F463611012E21DCA9
:104F60000BB1804689462F4BA9F1547903EBC70753
:104F70004246D7E900014B46FBF7C8FA264B0A46E2
:104F80000B40294980468B42B9D8A1F580118B424C
:104F900086BF4FF0FF38DFF8949002F15479002378
:104FA00005937FE0F20705D5059BD3E90023FBF7C6
:104FB000ADFA0123059A0137083276100592CDE744
:104FC000EDD0764216F00F020AD0154B404603EBA7
:104FD000C2034946D3E90023FBF7C2FB804689465A
:104FE0003611DCD01F2E23DD4FF0000BCDF810B0B2
:104FF000CDF820B0CDF818B022234FF000084FF0C4
:105000000009CAF8003089E7C1830008D883000886
:10501000B8830008BB8300080000F07F9D8600086D
:1050200040850008188500080000A07CFFFFEF7F86
:1050300016F0100318BF6A23404605934946002323
:10504000B04FF20704D5D7E90023FBF75FFA01233D
:10505000761007F10807F4D10BB180468946059B0D
:10506000C3B1C9F30A52C2F16B03002B494611DDEB
:105070001F2B40F32781342BD8BF4FF0FF334FF065
:105080000008CFBF4FF05C79C2F14B0203FA02F285
:1050900002EA01090022002340464946FBF79EFC34
:1050A0000028A1D1069B5A460093504623460899F2
:1050B00000F042FF089000283FF421AF049B4FF01E
:1050C000000B5D1B079BCDF810B0002BB4BF2B4627
:1050D00000230E93079B23EAE3731493089B504627
:1050E000596800F081FE069000283FF410AF089B3D
:1050F0000C301A6903F10C0102329200FFF7FAFA40
:105100001CAB01931BAB009342464B465046CDE986
:105110000C8901F053FA1A9000283FF4F8AE0121EF
:10512000504600F0A1FF0346049000283FF4EFAE84
:105130001B9D1C9A002DABBF0E9B149BEE185C1B95
:10514000059BA8BF149CA5EB030515446E4B05F108
:10515000FF35B8BF0E9E9D42C2F1360280F2C48078
:105160005B1B1F2B4FF00107A2EB030200F3B18082
:10517000002507FA03F30F93B718059BBE421444AA
:105180001C443346A8BF3B46A342A8BF2346002B7E
:10519000C2BFFF1AE41AF61A0E9B002B17DD1A463F
:1051A0005046049901F01EF8049000283FF4AFAE79
:1051B00001461A9A504600F06DFF099000283FF40E
:1051C000A6AE50461A9900F04FFE099B1A93002F85
:1051D00000F38E80079B002B08DD5046149A069939
:1051E00001F000F8069000283FF491AE002C08DD95
:1051F00022465046069901F04FF8069000283FF4E9
:1052000086AE002E08DD32465046049901F044F87F
:10521000049000283FF47BAE5046069A1A9901F09C
:10522000C7F8834600283FF472AE0024C36804998F
:10523000C4600B9301F0A0F8A0426BDA0B9B53EA19
:10524000080340F09180C9F31303002B40F08C80D9
:1052500029F000431B0D1B05B3F1D66F40F284808B
:10526000DBF814301BB9DBF81030012B7CDD59461C
:105270000122504601F010F80499834601F07CF8B1
:10528000002871DD05994B46204A002900F08C80EA
:1052900002EA0901B1F1D66F00F38680B1F15C7FBB
:1052A0007FF7AAAE40464946194B0022FBF72EF97C
:1052B0000B46034308BF22238046894608BFCAF82D
:1052C00000302FE64FF0FF3202FA03F303EA08083A
:1052D000E0E6C5F17F4505F57F0505F57B45E2353F
:1052E00007FA05F50F9747E7012300250F9343E7DA
:1052F0003A4650461A9900F0CFFF1A9000287FF4E2
:1053000069AF04E6F083000802FCFFFF0000F07FB5
:1053100000005039CDF8249065D10B9AC9F31303DE
:105320005AB3994A93422BD1059B414603B34A464F
:10533000964B1340B3F1D46F4FF0FF321BD81B0DC7
:10534000C3F16B0302FA03F3994219D1904B099A06
:105350009A4202D101313FF4DAAD4FF000088B4B95
:10536000099A1A4002F58019059B002B9AD1D9E5BC
:105370004FF0FF33E8E71346E6E753EA080381D02E
:10538000E5B1099B1D42EFD00B9B40464946059A6B
:10539000C3B1FFF75CFB02460B46DDE90C01FAF7EF
:1053A000FFFE80468946DFE71340A3F580136FEACE
:1053B00013594FF0FF386FEA0959D5E70F9B13EAED
:1053C000080FE0E7FFF743FB02460B46DDE90C015F
:1053D000FAF7E4FE0022002380468946FBF7FEFA36
:1053E0000028C1D008E65846049901F043F900228C
:1053F0004FF0804306460F46FBF704FB002870D0B1
:105400000B9B002B42D00026624F624D099B23F07C
:1054100000431B0D1B050F930F9A5F4B9A4240F000
:10542000C380099B4046A3F15479494601F04CF8EA
:1054300002460B4630463946FBF768F842464B4673
:10544000FAF7AEFE0B465149544A19409142804644
:105450005DD90D9A4E4B9A4203D10C9B01333FF418
:1054600056AD4FF0FF38DFF8289150461A9900F0FA
:10547000FBFC5046069900F0F7FC5046049900F0FA
:10548000F3FC5946504600F0EFFC27E6B8F1000F58
:1054900019D1099BC3F31303E3B9002230463946FF
:1054A0003C4BFBF7A5FAC8B90022304639463C4BC5
:1054B000FBF72CF804460D4605F1004316941793AC
:1054C000DDE91667A2E7B8F1010F03D1099B002BB4
:1054D0003FF492AD00260024324F96E70B9C304DEE
:1054E000EAE72F4B002230463946FBF70FF80B9BBB
:1054F00004460D4633B901F1004310901193DDE9E4
:10550000106783E702460B46CDE91023F7E703F166
:105510005479059B002BA8D129F000430F9A1B0D4D
:105520001B059A42A1D120462946FBF765FDFAF7F3
:10553000BFFF02460B4620462946FAF72FFE0B9A7C
:10554000C9F3130343EA0803134304460D4666D028
:1055500009A3D3E90023FBF74BFA00287FF4E2AC60
:1055600007A3D3E9002320462946FBF75FFA00286A
:105570003FF47BAFD6E400BF9535A094FFFFDF3F3B
:1055800035E5AF350000E03FFFFF0F000000F07F82
:10559000FFFFEF7F0000F03F0000E07FFFFF9F7CF8
:1055A0000000E03F0000F0BF059B13B30F9BB3F179
:1055B000D46F1ED826A3D3E9002320462946FBF743
:1055C00021FA90B129462046FBF778FA012838BF26
:1055D0000120FAF721FF0B9B04460D46D3B901F1D8
:1055E000004312901393DDE912670F9A07F1D66317
:1055F0009F1ADDE90C0100F067FF02460B463046BA
:105600003946FAF783FFDDE90C23FAF7C9FD804636
:1056100089467EE702460B46CDE91223E3E70EA357
:10562000D3E90023FBF7E4F9A1E700230A93199BD0
:10563000159A1360FFF771BA652A3FF463AB452AE8
:105640003FF460AB0123FFF795BB00BFAFF30080D1
:105650000000C0FFFFFFDF419535A094FFFFCF3F63
:105660000A4601460248034B0068FFF711BA00BF23
:10567000200000208800002038B504460846114666
:105680000022054D2A601A46FEF74DFF431C02D149
:105690002B6803B1236038BDB802002038B5002361
:1056A000054D044608462B60FEF759FF431C02D106
:1056B0002B6803B1236038BDB802002003692DE9CF
:1056C000F043B3EB611F00F114044FEA611246DDB1
:1056D00011F01F0104EB830604EB82050CD129466F
:1056E00000F11007B14235D39B1A9B00EA1E964287
:1056F00038BF0023234415E0A14654F82270C1F1BD
:105700002008CF4005F1040E7645F44616D89A1AC3
:105710009200043A0135AE4238BF0022A318A750C8
:1057200007B10433A342A3EB040208BF00234FEAEE
:10573000A202026108BF4361BDE8F083DCF800C04B
:105740000CFA08FC4CEA070749F8047B5EF8047B76
:10575000CF40D9E751F804CB47F804CFC2E723463E
:10576000E0E7A0F13003092B02D82038C0B270471F
:10577000A0F16103052B01D84738F7E7A0F14103F9
:10578000052B01D82738F1E7002070472DE9F04FAD
:105790008BB00593B24B02901B688B46184690461F
:1057A0000393FAF7EFFC8246039BDBF800200344E7
:1057B00013F8013C0693931CC2F1FF2202F57F020D
:1057C000FE32D1181F4613F8010B01913028F8D092
:1057D000FFF7C7FF044600283AD1524638460399DE
:1057E000FFF721F90546002866D117F80A0007EBF4
:1057F0000A06FFF7B6FF002860D0334618781F4628
:10580000302803F10103F9D0FFF7ABFF0123B0FA11
:1058100080F43546640901933A46164630780132E1
:10582000FFF79FFF0028F8D1524630460399FFF753
:10583000FAF880B94DB906EB0A052A4616463078C3
:105840000132FFF78EFF0028F8D1AD1BAD0004E058
:1058500000242546E0E7002DF7D1337803F0DF037D
:10586000502B39D173782B2B2AD02D2B2CD04FF0E5
:105870000009711C0878FFF774FF431EDBB2182B78
:105880002AD8A0F1100211F8010FFFF76AFF431E9A
:10589000DBB2182B1BD9B9F1000F00D052421544CE
:1058A000CBF80010D4B1019B002B14BF00270627B2
:1058B00038460BB0BDE8F08F3E4625460124CCE7C4
:1058C0004FF00009B11CD5E74FF00109FAE70A23B0
:1058D00003FB0202103AD6E73146E1E72146F31B0B
:1058E000013B072B0ADC029800F07EFA044640B91F
:1058F0000246DE215B4B5C4801F010FF01315B107A
:10590000EFE74FF0000B00F11409CAF10103CDF8E5
:105910001090CDF804B00893B7423FD3049F019B89
:1059200047F8043BA7EB0907BF102761184600F0B2
:105930004DFB7F01D8F800603F1AB74262DDBF1B04
:105940003946204600F0E7FE8246A8B14FF0010A32
:105950007B1E591159F8211003F01F020AFA02F2B6
:105960000A4209D0534505DD2046B91E00F0D3FE9A
:10597000002844D14FF0020A39462046FFF79EFE28
:105980003D44D8F80830AB424ADA2146029800F08C
:105990006BFA0023149AA327136089E7731E069AF3
:1059A000079316F8013C934219D0BBF1200F07D1A1
:1059B000049B019A43F8042B049300239B46019314
:1059C00016F8010CFFF7CDFE019B00F00F0000FA66
:1059D0000BF0034301930BF1040B079B0DE0089AB6
:1059E000731E1344BB42E0D31846524603990993F1
:1059F000FFF719F8099B0028D7D11E468CE74FF016
:105A0000030AB9E709DAF71B21463A46029800F083
:105A100043FC0446ED1B00F114094FF0000AB0E707
:105A2000D8F80400A84272DD451BAE4235DCD8F838
:105A30000C30022B29D0032B2BD0012B1CD1AE42D2
:105A40001AD1012E12D1D8F80430059A62271360BA
:105A500001232361C9F80030149B1C6028E700BFB4
:105A60009084000818840008298400082046711ECC
:105A700000F051FE0028E6D12146029800F0F4F92A
:105A80000023149A5027136012E7159B002BF3D1C3
:105A9000D9E7159B002BD6D1EEE76F1EBAF1000FA8
:105AA00032D127B13946204600F035FE8246012129
:105AB0007B1159F8233007F01F0701FA07F71F423F
:105AC0004FF002072946204618BF4AF0020A761B0B
:105AD000FFF7F4FDD8F80450BAF1000F48D0D8F819
